{
  "_format": "hh-sol-artifact-1",
  "contractName": "Domains",
  "sourceName": "contracts/Domains.sol",
  "abi": [
    {
      "inputs": [
        {
          "internalType": "string",
          "name": "_tld",
          "type": "string"
        }
      ],
      "stateMutability": "payable",
      "type": "constructor"
    },
    {
      "inputs": [],
      "name": "AlreadyRegistered",
      "type": "error"
    },
    {
      "inputs": [
        {
          "internalType": "string",
          "name": "name",
          "type": "string"
        }
      ],
      "name": "InvalidName",
      "type": "error"
    },
    {
      "inputs": [],
      "name": "Unauthorized",
      "type": "error"
    },
    {
      "anonymous": false,
      "inputs": [
        {
          "indexed": true,
          "internalType": "address",
          "name": "owner",
          "type": "address"
        },
        {
          "indexed": true,
          "internalType": "address",
          "name": "approved",
          "type": "address"
        },
        {
          "indexed": true,
          "internalType": "uint256",
          "name": "tokenId",
          "type": "uint256"
        }
      ],
      "name": "Approval",
      "type": "event"
    },
    {
      "anonymous": false,
      "inputs": [
        {
          "indexed": true,
          "internalType": "address",
          "name": "owner",
          "type": "address"
        },
        {
          "indexed": true,
          "internalType": "address",
          "name": "operator",
          "type": "address"
        },
        {
          "indexed": false,
          "internalType": "bool",
          "name": "approved",
          "type": "bool"
        }
      ],
      "name": "ApprovalForAll",
      "type": "event"
    },
    {
      "anonymous": false,
      "inputs": [
        {
          "indexed": true,
          "internalType": "address",
          "name": "from",
          "type": "address"
        },
        {
          "indexed": true,
          "internalType": "address",
          "name": "to",
          "type": "address"
        },
        {
          "indexed": true,
          "internalType": "uint256",
          "name": "tokenId",
          "type": "uint256"
        }
      ],
      "name": "Transfer",
      "type": "event"
    },
    {
      "inputs": [
        {
          "internalType": "address",
          "name": "to",
          "type": "address"
        },
        {
          "internalType": "uint256",
          "name": "tokenId",
          "type": "uint256"
        }
      ],
      "name": "approve",
      "outputs": [],
      "stateMutability": "nonpayable",
      "type": "function"
    },
    {
      "inputs": [
        {
          "internalType": "address",
          "name": "owner",
          "type": "address"
        }
      ],
      "name": "balanceOf",
      "outputs": [
        {
          "internalType": "uint256",
          "name": "",
          "type": "uint256"
        }
      ],
      "stateMutability": "view",
      "type": "function"
    },
    {
      "inputs": [
        {
          "internalType": "string",
          "name": "",
          "type": "string"
        }
      ],
      "name": "characters",
      "outputs": [
        {
          "internalType": "string",
          "name": "",
          "type": "string"
        }
      ],
      "stateMutability": "view",
      "type": "function"
    },
    {
      "inputs": [
        {
          "internalType": "string",
          "name": "",
          "type": "string"
        }
      ],
      "name": "domains",
      "outputs": [
        {
          "internalType": "address",
          "name": "",
          "type": "address"
        }
      ],
      "stateMutability": "view",
      "type": "function"
    },
    {
      "inputs": [
        {
          "internalType": "string",
          "name": "name",
          "type": "string"
        }
      ],
      "name": "getAddress",
      "outputs": [
        {
          "internalType": "address",
          "name": "",
          "type": "address"
        }
      ],
      "stateMutability": "view",
      "type": "function"
    },
    {
      "inputs": [],
      "name": "getAllNames",
      "outputs": [
        {
          "internalType": "string[]",
          "name": "",
          "type": "string[]"
        }
      ],
      "stateMutability": "view",
      "type": "function"
    },
    {
      "inputs": [
        {
          "internalType": "uint256",
          "name": "tokenId",
          "type": "uint256"
        }
      ],
      "name": "getApproved",
      "outputs": [
        {
          "internalType": "address",
          "name": "",
          "type": "address"
        }
      ],
      "stateMutability": "view",
      "type": "function"
    },
    {
      "inputs": [
        {
          "internalType": "string",
          "name": "name",
          "type": "string"
        }
      ],
      "name": "getCharacter",
      "outputs": [
        {
          "internalType": "string",
          "name": "",
          "type": "string"
        }
      ],
      "stateMutability": "view",
      "type": "function"
    },
    {
      "inputs": [
        {
          "internalType": "string",
          "name": "name",
          "type": "string"
        }
      ],
      "name": "getCharacterLink",
      "outputs": [
        {
          "internalType": "string",
          "name": "",
          "type": "string"
        }
      ],
      "stateMutability": "view",
      "type": "function"
    },
    {
      "inputs": [
        {
          "internalType": "address",
          "name": "owner",
          "type": "address"
        },
        {
          "internalType": "address",
          "name": "operator",
          "type": "address"
        }
      ],
      "name": "isApprovedForAll",
      "outputs": [
        {
          "internalType": "bool",
          "name": "",
          "type": "bool"
        }
      ],
      "stateMutability": "view",
      "type": "function"
    },
    {
      "inputs": [],
      "name": "isOwner",
      "outputs": [
        {
          "internalType": "bool",
          "name": "",
          "type": "bool"
        }
      ],
      "stateMutability": "view",
      "type": "function"
    },
    {
      "inputs": [
        {
          "internalType": "string",
          "name": "",
          "type": "string"
        }
      ],
      "name": "links",
      "outputs": [
        {
          "internalType": "string",
          "name": "",
          "type": "string"
        }
      ],
      "stateMutability": "view",
      "type": "function"
    },
    {
      "inputs": [],
      "name": "name",
      "outputs": [
        {
          "internalType": "string",
          "name": "",
          "type": "string"
        }
      ],
      "stateMutability": "view",
      "type": "function"
    },
    {
      "inputs": [
        {
          "internalType": "uint256",
          "name": "",
          "type": "uint256"
        }
      ],
      "name": "names",
      "outputs": [
        {
          "internalType": "string",
          "name": "",
          "type": "string"
        }
      ],
      "stateMutability": "view",
      "type": "function"
    },
    {
      "inputs": [],
      "name": "owner",
      "outputs": [
        {
          "internalType": "address payable",
          "name": "",
          "type": "address"
        }
      ],
      "stateMutability": "view",
      "type": "function"
    },
    {
      "inputs": [
        {
          "internalType": "uint256",
          "name": "tokenId",
          "type": "uint256"
        }
      ],
      "name": "ownerOf",
      "outputs": [
        {
          "internalType": "address",
          "name": "",
          "type": "address"
        }
      ],
      "stateMutability": "view",
      "type": "function"
    },
    {
      "inputs": [
        {
          "internalType": "string",
          "name": "name",
          "type": "string"
        }
      ],
      "name": "price",
      "outputs": [
        {
          "internalType": "uint256",
          "name": "",
          "type": "uint256"
        }
      ],
      "stateMutability": "pure",
      "type": "function"
    },
    {
      "inputs": [
        {
          "internalType": "string",
          "name": "name",
          "type": "string"
        }
      ],
      "name": "register",
      "outputs": [],
      "stateMutability": "payable",
      "type": "function"
    },
    {
      "inputs": [
        {
          "internalType": "address",
          "name": "from",
          "type": "address"
        },
        {
          "internalType": "address",
          "name": "to",
          "type": "address"
        },
        {
          "internalType": "uint256",
          "name": "tokenId",
          "type": "uint256"
        }
      ],
      "name": "safeTransferFrom",
      "outputs": [],
      "stateMutability": "nonpayable",
      "type": "function"
    },
    {
      "inputs": [
        {
          "internalType": "address",
          "name": "from",
          "type": "address"
        },
        {
          "internalType": "address",
          "name": "to",
          "type": "address"
        },
        {
          "internalType": "uint256",
          "name": "tokenId",
          "type": "uint256"
        },
        {
          "internalType": "bytes",
          "name": "_data",
          "type": "bytes"
        }
      ],
      "name": "safeTransferFrom",
      "outputs": [],
      "stateMutability": "nonpayable",
      "type": "function"
    },
    {
      "inputs": [
        {
          "internalType": "address",
          "name": "operator",
          "type": "address"
        },
        {
          "internalType": "bool",
          "name": "approved",
          "type": "bool"
        }
      ],
      "name": "setApprovalForAll",
      "outputs": [],
      "stateMutability": "nonpayable",
      "type": "function"
    },
    {
      "inputs": [
        {
          "internalType": "string",
          "name": "name",
          "type": "string"
        },
        {
          "internalType": "string",
          "name": "character",
          "type": "string"
        }
      ],
      "name": "setCharacter",
      "outputs": [],
      "stateMutability": "nonpayable",
      "type": "function"
    },
    {
      "inputs": [
        {
          "internalType": "string",
          "name": "name",
          "type": "string"
        },
        {
          "internalType": "string",
          "name": "link",
          "type": "string"
        }
      ],
      "name": "setCharacterLink",
      "outputs": [],
      "stateMutability": "nonpayable",
      "type": "function"
    },
    {
      "inputs": [
        {
          "internalType": "bytes4",
          "name": "interfaceId",
          "type": "bytes4"
        }
      ],
      "name": "supportsInterface",
      "outputs": [
        {
          "internalType": "bool",
          "name": "",
          "type": "bool"
        }
      ],
      "stateMutability": "view",
      "type": "function"
    },
    {
      "inputs": [],
      "name": "symbol",
      "outputs": [
        {
          "internalType": "string",
          "name": "",
          "type": "string"
        }
      ],
      "stateMutability": "view",
      "type": "function"
    },
    {
      "inputs": [],
      "name": "tld",
      "outputs": [
        {
          "internalType": "string",
          "name": "",
          "type": "string"
        }
      ],
      "stateMutability": "view",
      "type": "function"
    },
    {
      "inputs": [
        {
          "internalType": "uint256",
          "name": "tokenId",
          "type": "uint256"
        }
      ],
      "name": "tokenURI",
      "outputs": [
        {
          "internalType": "string",
          "name": "",
          "type": "string"
        }
      ],
      "stateMutability": "view",
      "type": "function"
    },
    {
      "inputs": [
        {
          "internalType": "address",
          "name": "from",
          "type": "address"
        },
        {
          "internalType": "address",
          "name": "to",
          "type": "address"
        },
        {
          "internalType": "uint256",
          "name": "tokenId",
          "type": "uint256"
        }
      ],
      "name": "transferFrom",
      "outputs": [],
      "stateMutability": "nonpayable",
      "type": "function"
    },
    {
      "inputs": [
        {
          "internalType": "string",
          "name": "name",
          "type": "string"
        }
      ],
      "name": "valid",
      "outputs": [
        {
          "internalType": "bool",
          "name": "",
          "type": "bool"
        }
      ],
      "stateMutability": "pure",
      "type": "function"
    },
    {
      "inputs": [],
      "name": "withdraw",
      "outputs": [],
      "stateMutability": "nonpayable",
      "type": "function"
    }
  ],
  "bytecode": "0x608060405260405180610ba00160405280610b66815260200162005af7610b669139600a908051906020019062000038929190620002c8565b506040518060400160405280600d81526020017f3c2f746578743e3c2f7376673e00000000000000000000000000000000000000815250600b908051906020019062000086929190620002c8565b506040516200665d3803806200665d8339818101604052810190620000ac919062000515565b6040518060400160405280601b81526020017f486f6b616765204e616d65205365727669636528686f6b6167652900000000008152506040518060400160405280600681526020017f484f4b4147450000000000000000000000000000000000000000000000000000815250816000908051906020019062000130929190620002c8565b50806001908051906020019062000149929190620002c8565b50505033600860006101000a81548173ffffffffffffffffffffffffffffffffffffffff021916908373ffffffffffffffffffffffffffffffffffffffff1602179055508060099080519060200190620001a5929190620002c8565b50620001f26040518060400160405280601981526020017f2573206e616d652073657276696365206465706c6f796564200000000000000081525082620001f960201b620021651760201c565b5062000663565b6200029b828260405160240162000212929190620005c3565b6040516020818303038152906040527f4b5c4277000000000000000000000000000000000000000000000000000000007bffffffffffffffffffffffffffffffffffffffffffffffffffffffff19166020820180517bffffffffffffffffffffffffffffffffffffffffffffffffffffffff83818316178352505050506200029f60201b60201c565b5050565b60008151905060006a636f6e736f6c652e6c6f679050602083016000808483855afa5050505050565b828054620002d6906200062d565b90600052602060002090601f016020900481019282620002fa576000855562000346565b82601f106200031557805160ff191683800117855562000346565b8280016001018555821562000346579182015b828111156200034557825182559160200191906001019062000328565b5b50905062000355919062000359565b5090565b5b80821115620003745760008160009055506001016200035a565b5090565b6000604051905090565b600080fd5b600080fd5b600080fd5b600080fd5b6000601f19601f8301169050919050565b7f4e487b7100000000000000000000000000000000000000000000000000000000600052604160045260246000fd5b620003e18262000396565b810181811067ffffffffffffffff82111715620004035762000402620003a7565b5b80604052505050565b60006200041862000378565b9050620004268282620003d6565b919050565b600067ffffffffffffffff821115620004495762000448620003a7565b5b620004548262000396565b9050602081019050919050565b60005b838110156200048157808201518184015260208101905062000464565b8381111562000491576000848401525b50505050565b6000620004ae620004a8846200042b565b6200040c565b905082815260208101848484011115620004cd57620004cc62000391565b5b620004da84828562000461565b509392505050565b600082601f830112620004fa57620004f96200038c565b5b81516200050c84826020860162000497565b91505092915050565b6000602082840312156200052e576200052d62000382565b5b600082015167ffffffffffffffff8111156200054f576200054e62000387565b5b6200055d84828501620004e2565b91505092915050565b600081519050919050565b600082825260208201905092915050565b60006200058f8262000566565b6200059b818562000571565b9350620005ad81856020860162000461565b620005b88162000396565b840191505092915050565b60006040820190508181036000830152620005df818562000582565b90508181036020830152620005f5818462000582565b90509392505050565b7f4e487b7100000000000000000000000000000000000000000000000000000000600052602260045260246000fd5b600060028204905060018216806200064657607f821691505b602082108114156200065d576200065c620005fe565b5b50919050565b61548480620006736000396000f3fe6080604052600436106101cd5760003560e01c80638da5cb5b116100f7578063bf40fac111610095578063f2c298be11610064578063f2c298be146106f8578063f5d41f0714610714578063fb825e5f14610751578063fe2c61981461077c576101cd565b8063bf40fac114610604578063c87b56dd14610641578063cfa2d58c1461067e578063e985e9c5146106bb576101cd565b80639791c097116100d15780639791c0971461054c5780639c3ba40e14610589578063a22cb465146105b2578063b88d4fde146105db576101cd565b80638da5cb5b146104cb5780638f32d59b146104f657806395d89b4114610521576101cd565b80633ccfd60b1161016f578063521a05401161013e578063521a0540146103eb5780636352211e146104145780636c19b0241461045157806370a082311461048e576101cd565b80633ccfd60b1461033157806342842e0e1461034857806345b244c9146103715780634622ab03146103ae576101cd565b8063095ea7b3116101ab578063095ea7b31461027757806323b872dd146102a057806326449235146102c95780632d55143214610306576101cd565b806301ffc9a7146101d257806306fdde031461020f578063081812fc1461023a575b600080fd5b3480156101de57600080fd5b506101f960048036038101906101f4919061364a565b6107b9565b6040516102069190613692565b60405180910390f35b34801561021b57600080fd5b5061022461089b565b6040516102319190613746565b60405180910390f35b34801561024657600080fd5b50610261600480360381019061025c919061379e565b61092d565b60405161026e919061380c565b60405180910390f35b34801561028357600080fd5b5061029e60048036038101906102999190613853565b6109b2565b005b3480156102ac57600080fd5b506102c760048036038101906102c29190613893565b610aca565b005b3480156102d557600080fd5b506102f060048036038101906102eb9190613a1b565b610b2a565b6040516102fd919061380c565b60405180910390f35b34801561031257600080fd5b5061031b610b73565b6040516103289190613746565b60405180910390f35b34801561033d57600080fd5b50610346610c01565b005b34801561035457600080fd5b5061036f600480360381019061036a9190613893565b610cc7565b005b34801561037d57600080fd5b5061039860048036038101906103939190613a1b565b610ce7565b6040516103a59190613746565b60405180910390f35b3480156103ba57600080fd5b506103d560048036038101906103d0919061379e565b610d9d565b6040516103e29190613746565b60405180910390f35b3480156103f757600080fd5b50610412600480360381019061040d9190613ac4565b610e3d565b005b34801561042057600080fd5b5061043b6004803603810190610436919061379e565b610fc6565b604051610448919061380c565b60405180910390f35b34801561045d57600080fd5b5061047860048036038101906104739190613a1b565b611078565b6040516104859190613746565b60405180910390f35b34801561049a57600080fd5b506104b560048036038101906104b09190613b45565b61112e565b6040516104c29190613b81565b60405180910390f35b3480156104d757600080fd5b506104e06111e6565b6040516104ed9190613bbd565b60405180910390f35b34801561050257600080fd5b5061050b61120c565b6040516105189190613692565b60405180910390f35b34801561052d57600080fd5b50610536611264565b6040516105439190613746565b60405180910390f35b34801561055857600080fd5b50610573600480360381019061056e9190613bd8565b6112f6565b6040516105809190613692565b60405180910390f35b34801561059557600080fd5b506105b060048036038101906105ab9190613ac4565b6113aa565b005b3480156105be57600080fd5b506105d960048036038101906105d49190613c51565b611533565b005b3480156105e757600080fd5b5061060260048036038101906105fd9190613d32565b611549565b005b34801561061057600080fd5b5061062b60048036038101906106269190613bd8565b6115ab565b604051610638919061380c565b60405180910390f35b34801561064d57600080fd5b506106686004803603810190610663919061379e565b6115f6565b6040516106759190613746565b60405180910390f35b34801561068a57600080fd5b506106a560048036038101906106a09190613bd8565b611748565b6040516106b29190613746565b60405180910390f35b3480156106c757600080fd5b506106e260048036038101906106dd9190613db5565b6117fb565b6040516106ef9190613692565b60405180910390f35b610712600480360381019061070d9190613bd8565b61188f565b005b34801561072057600080fd5b5061073b60048036038101906107369190613bd8565b611e2e565b6040516107489190613746565b60405180910390f35b34801561075d57600080fd5b50610766611ee1565b6040516107739190613f01565b60405180910390f35b34801561078857600080fd5b506107a3600480360381019061079e9190613bd8565b6120bf565b6040516107b09190613b81565b60405180910390f35b60007f80ac58cd000000000000000000000000000000000000000000000000000000007bffffffffffffffffffffffffffffffffffffffffffffffffffffffff1916827bffffffffffffffffffffffffffffffffffffffffffffffffffffffff1916148061088457507f5b5e139f000000000000000000000000000000000000000000000000000000007bffffffffffffffffffffffffffffffffffffffffffffffffffffffff1916827bffffffffffffffffffffffffffffffffffffffffffffffffffffffff1916145b80610894575061089382612201565b5b9050919050565b6060600080546108aa90613f52565b80601f01602080910402602001604051908101604052809291908181526020018280546108d690613f52565b80156109235780601f106108f857610100808354040283529160200191610923565b820191906000526020600020905b81548152906001019060200180831161090657829003601f168201915b5050505050905090565b60006109388261226b565b610977576040517f08c379a000000000000000000000000000000000000000000000000000000000815260040161096e90613ff6565b60405180910390fd5b6004600083815260200190815260200160002060009054906101000a900473ffffffffffffffffffffffffffffffffffffffff169050919050565b60006109bd82610fc6565b90508073ffffffffffffffffffffffffffffffffffffffff168373ffffffffffffffffffffffffffffffffffffffff161415610a2e576040517f08c379a0000000000000000000000000000000000000000000000000000000008152600401610a2590614088565b60405180910390fd5b8073ffffffffffffffffffffffffffffffffffffffff16610a4d6122d7565b73ffffffffffffffffffffffffffffffffffffffff161480610a7c5750610a7b81610a766122d7565b6117fb565b5b610abb576040517f08c379a0000000000000000000000000000000000000000000000000000000008152600401610ab29061411a565b60405180910390fd5b610ac583836122df565b505050565b610adb610ad56122d7565b82612398565b610b1a576040517f08c379a0000000000000000000000000000000000000000000000000000000008152600401610b11906141ac565b60405180910390fd5b610b25838383612476565b505050565b600c818051602081018201805184825260208301602085012081835280955050505050506000915054906101000a900473ffffffffffffffffffffffffffffffffffffffff1681565b60098054610b8090613f52565b80601f0160208091040260200160405190810160405280929190818152602001828054610bac90613f52565b8015610bf95780601f10610bce57610100808354040283529160200191610bf9565b820191906000526020600020905b815481529060010190602001808311610bdc57829003601f168201915b505050505081565b610c0961120c565b610c1257600080fd5b600047905060003373ffffffffffffffffffffffffffffffffffffffff1682604051610c3d906141fd565b60006040518083038185875af1925050503d8060008114610c7a576040519150601f19603f3d011682016040523d82523d6000602084013e610c7f565b606091505b5050905080610cc3576040517f08c379a0000000000000000000000000000000000000000000000000000000008152600401610cba9061425e565b60405180910390fd5b5050565b610ce283838360405180602001604052806000815250611549565b505050565b600e818051602081018201805184825260208301602085012081835280955050505050506000915090508054610d1c90613f52565b80601f0160208091040260200160405190810160405280929190818152602001828054610d4890613f52565b8015610d955780601f10610d6a57610100808354040283529160200191610d95565b820191906000526020600020905b815481529060010190602001808311610d7857829003601f168201915b505050505081565b600f6020528060005260406000206000915090508054610dbc90613f52565b80601f0160208091040260200160405190810160405280929190818152602001828054610de890613f52565b8015610e355780601f10610e0a57610100808354040283529160200191610e35565b820191906000526020600020905b815481529060010190602001808311610e1857829003601f168201915b505050505081565b3373ffffffffffffffffffffffffffffffffffffffff16600c8585604051610e669291906142ae565b908152602001604051809103902060009054906101000a900473ffffffffffffffffffffffffffffffffffffffff1673ffffffffffffffffffffffffffffffffffffffff1614610eeb576040517f08c379a0000000000000000000000000000000000000000000000000000000008152600401610ee290614339565b60405180910390fd5b600c8484604051610efd9291906142ae565b908152602001604051809103902060009054906101000a900473ffffffffffffffffffffffffffffffffffffffff1673ffffffffffffffffffffffffffffffffffffffff163373ffffffffffffffffffffffffffffffffffffffff1614610f90576040517f82b4290000000000000000000000000000000000000000000000000000000000815260040160405180910390fd5b8181600d8686604051610fa49291906142ae565b90815260200160405180910390209190610fbf9291906134b5565b5050505050565b6000806002600084815260200190815260200160002060009054906101000a900473ffffffffffffffffffffffffffffffffffffffff169050600073ffffffffffffffffffffffffffffffffffffffff168173ffffffffffffffffffffffffffffffffffffffff16141561106f576040517f08c379a0000000000000000000000000000000000000000000000000000000008152600401611066906143cb565b60405180910390fd5b80915050919050565b600d8180516020810182018051848252602083016020850120818352809550505050505060009150905080546110ad90613f52565b80601f01602080910402602001604051908101604052809291908181526020018280546110d990613f52565b80156111265780601f106110fb57610100808354040283529160200191611126565b820191906000526020600020905b81548152906001019060200180831161110957829003601f168201915b505050505081565b60008073ffffffffffffffffffffffffffffffffffffffff168273ffffffffffffffffffffffffffffffffffffffff16141561119f576040517f08c379a00000000000000000000000000000000000000000000000000000000081526004016111969061445d565b60405180910390fd5b600360008373ffffffffffffffffffffffffffffffffffffffff1673ffffffffffffffffffffffffffffffffffffffff168152602001908152602001600020549050919050565b600860009054906101000a900473ffffffffffffffffffffffffffffffffffffffff1681565b6000600860009054906101000a900473ffffffffffffffffffffffffffffffffffffffff1673ffffffffffffffffffffffffffffffffffffffff163373ffffffffffffffffffffffffffffffffffffffff1614905090565b60606001805461127390613f52565b80601f016020809104026020016040519081016040528092919081815260200182805461129f90613f52565b80156112ec5780601f106112c1576101008083540402835291602001916112ec565b820191906000526020600020905b8154815290600101906020018083116112cf57829003601f168201915b5050505050905090565b6000600361134784848080601f016020809104026020016040519081016040528093929190818152602001838380828437600081840152601f19601f820116905080830192505050505050506126dd565b101580156113a25750600a61139f84848080601f016020809104026020016040519081016040528093929190818152602001838380828437600081840152601f19601f820116905080830192505050505050506126dd565b11155b905092915050565b3373ffffffffffffffffffffffffffffffffffffffff16600c85856040516113d39291906142ae565b908152602001604051809103902060009054906101000a900473ffffffffffffffffffffffffffffffffffffffff1673ffffffffffffffffffffffffffffffffffffffff1614611458576040517f08c379a000000000000000000000000000000000000000000000000000000000815260040161144f906144ef565b60405180910390fd5b600c848460405161146a9291906142ae565b908152602001604051809103902060009054906101000a900473ffffffffffffffffffffffffffffffffffffffff1673ffffffffffffffffffffffffffffffffffffffff163373ffffffffffffffffffffffffffffffffffffffff16146114fd576040517f82b4290000000000000000000000000000000000000000000000000000000000815260040160405180910390fd5b8181600e86866040516115119291906142ae565b9081526020016040518091039020919061152c9291906134b5565b5050505050565b61154561153e6122d7565b8383612892565b5050565b61155a6115546122d7565b83612398565b611599576040517f08c379a0000000000000000000000000000000000000000000000000000000008152600401611590906141ac565b60405180910390fd5b6115a5848484846129ff565b50505050565b6000600c83836040516115bf9291906142ae565b908152602001604051809103902060009054906101000a900473ffffffffffffffffffffffffffffffffffffffff16905092915050565b60606116018261226b565b611640576040517f08c379a000000000000000000000000000000000000000000000000000000000815260040161163790614581565b60405180910390fd5b600060066000848152602001908152602001600020805461166090613f52565b80601f016020809104026020016040519081016040528092919081815260200182805461168c90613f52565b80156116d95780601f106116ae576101008083540402835291602001916116d9565b820191906000526020600020905b8154815290600101906020018083116116bc57829003601f168201915b5050505050905060006116ea612a5b565b9050600081511415611700578192505050611743565b60008251111561173557808260405160200161171d9291906145d2565b60405160208183030381529060405292505050611743565b61173e84612a72565b925050505b919050565b6060600e838360405161175c9291906142ae565b9081526020016040518091039020805461177590613f52565b80601f01602080910402602001604051908101604052809291908181526020018280546117a190613f52565b80156117ee5780601f106117c3576101008083540402835291602001916117ee565b820191906000526020600020905b8154815290600101906020018083116117d157829003601f168201915b5050505050905092915050565b6000600560008473ffffffffffffffffffffffffffffffffffffffff1673ffffffffffffffffffffffffffffffffffffffff16815260200190815260200160002060008373ffffffffffffffffffffffffffffffffffffffff1673ffffffffffffffffffffffffffffffffffffffff16815260200190815260200160002060009054906101000a900460ff16905092915050565b600073ffffffffffffffffffffffffffffffffffffffff16600c83836040516118b99291906142ae565b908152602001604051809103902060009054906101000a900473ffffffffffffffffffffffffffffffffffffffff1673ffffffffffffffffffffffffffffffffffffffff161461193e576040517f08c379a000000000000000000000000000000000000000000000000000000000815260040161193590614642565b60405180910390fd5b600073ffffffffffffffffffffffffffffffffffffffff16600c83836040516119689291906142ae565b908152602001604051809103902060009054906101000a900473ffffffffffffffffffffffffffffffffffffffff1673ffffffffffffffffffffffffffffffffffffffff16146119e4576040517f3a81d6fc00000000000000000000000000000000000000000000000000000000815260040160405180910390fd5b6119ee82826112f6565b611a315781816040517f7f19f48d000000000000000000000000000000000000000000000000000000008152600401611a2892919061468f565b60405180910390fd5b60003073ffffffffffffffffffffffffffffffffffffffff1663fe2c619884846040518363ffffffff1660e01b8152600401611a6e92919061468f565b602060405180830381865afa158015611a8b573d6000803e3d6000fd5b505050506040513d601f19601f82011682018060405250810190611aaf91906146c8565b905080341015611af4576040517f08c379a0000000000000000000000000000000000000000000000000000000008152600401611aeb90614741565b60405180910390fd5b600083836009604051602001611b0c93929190614841565b60405160208183030381529060405290506000600a82600b604051602001611b3693929190614872565b60405160208183030381529060405290506000611b536007612b19565b90506000611ba487878080601f016020809104026020016040519081016040528093929190818152602001838380828437600081840152601f19601f820116905080830192505050505050506126dd565b90506000611bb182612b27565b9050611ca56040518060600160405280602d8152602001615422602d913989898080601f016020809104026020016040519081016040528093929190818152602001838380828437600081840152601f19601f8201169050808301925050505050505060098054611c2190613f52565b80601f0160208091040260200160405190810160405280929190818152602001828054611c4d90613f52565b8015611c9a5780601f10611c6f57610100808354040283529160200191611c9a565b820191906000526020600020905b815481529060010190602001808311611c7d57829003601f168201915b505050505086612c88565b6000611cdb86611cb487612d2a565b84604051602001611cc793929190614a1f565b604051602081830303815290604052612d2a565b9050600081604051602001611cf09190614ac8565b6040516020818303038152906040529050611d2260405180606001604052806039815260200161537060399139612ec2565b611d616040518060400160405280600e81526020017f46696e616c20746f6b656e55524900000000000000000000000000000000000081525082612165565b611d826040518060600160405280603981526020016153a960399139612ec2565b611d8c3386612f5b565b611d968582612f79565b33600c8b8b604051611da99291906142ae565b908152602001604051809103902060006101000a81548173ffffffffffffffffffffffffffffffffffffffff021916908373ffffffffffffffffffffffffffffffffffffffff1602179055508989600f60008881526020019081526020016000209190611e179291906134b5565b50611e226007612fed565b50505050505050505050565b6060600d8383604051611e429291906142ae565b90815260200160405180910390208054611e5b90613f52565b80601f0160208091040260200160405190810160405280929190818152602001828054611e8790613f52565b8015611ed45780601f10611ea957610100808354040283529160200191611ed4565b820191906000526020600020905b815481529060010190602001808311611eb757829003601f168201915b5050505050905092915050565b6060611f216040518060400160405280601f81526020017f47657474696e6720616c6c206e616d65732066726f6d20636f6e747261637400815250612ec2565b6000611f2d6007612b19565b67ffffffffffffffff811115611f4657611f456138f0565b5b604051908082528060200260200182016040528015611f7957816020015b6060815260200190600190039081611f645790505b50905060005b611f896007612b19565b8110156120b757600f60008281526020019081526020016000208054611fae90613f52565b80601f0160208091040260200160405190810160405280929190818152602001828054611fda90613f52565b80156120275780601f10611ffc57610100808354040283529160200191612027565b820191906000526020600020905b81548152906001019060200180831161200a57829003601f168201915b505050505082828151811061203f5761203e614aea565b5b60200260200101819052506120a46040518060400160405280601781526020017f4e616d6520666f7220746f6b656e2025642069732025730000000000000000008152508284848151811061209757612096614aea565b5b6020026020010151613003565b80806120af90614b48565b915050611f7f565b508091505090565b60008061210f84848080601f016020809104026020016040519081016040528093929190818152602001838380828437600081840152601f19601f820116905080830192505050505050506126dd565b90506000811161211e57600080fd5b6003811415612138576706f05b59d3b2000091505061215f565b600481141561215257670429d069189e000091505061215f565b67016345785d8a00009150505b92915050565b6121fd828260405160240161217b929190614b91565b6040516020818303038152906040527f4b5c4277000000000000000000000000000000000000000000000000000000007bffffffffffffffffffffffffffffffffffffffffffffffffffffffff19166020820180517bffffffffffffffffffffffffffffffffffffffffffffffffffffffff83818316178352505050506130a2565b5050565b60007f01ffc9a7000000000000000000000000000000000000000000000000000000007bffffffffffffffffffffffffffffffffffffffffffffffffffffffff1916827bffffffffffffffffffffffffffffffffffffffffffffffffffffffff1916149050919050565b60008073ffffffffffffffffffffffffffffffffffffffff166002600084815260200190815260200160002060009054906101000a900473ffffffffffffffffffffffffffffffffffffffff1673ffffffffffffffffffffffffffffffffffffffff1614159050919050565b600033905090565b816004600083815260200190815260200160002060006101000a81548173ffffffffffffffffffffffffffffffffffffffff021916908373ffffffffffffffffffffffffffffffffffffffff160217905550808273ffffffffffffffffffffffffffffffffffffffff1661235283610fc6565b73ffffffffffffffffffffffffffffffffffffffff167f8c5be1e5ebec7d5bd14f71427d1e84f3dd0314c0f7b2291e5b200ac8c7c3b92560405160405180910390a45050565b60006123a38261226b565b6123e2576040517f08c379a00000000000000000000000000000000000000000000000000000000081526004016123d990614c3a565b60405180910390fd5b60006123ed83610fc6565b90508073ffffffffffffffffffffffffffffffffffffffff168473ffffffffffffffffffffffffffffffffffffffff16148061245c57508373ffffffffffffffffffffffffffffffffffffffff166124448461092d565b73ffffffffffffffffffffffffffffffffffffffff16145b8061246d575061246c81856117fb565b5b91505092915050565b8273ffffffffffffffffffffffffffffffffffffffff1661249682610fc6565b73ffffffffffffffffffffffffffffffffffffffff16146124ec576040517f08c379a00000000000000000000000000000000000000000000000000000000081526004016124e390614ccc565b60405180910390fd5b600073ffffffffffffffffffffffffffffffffffffffff168273ffffffffffffffffffffffffffffffffffffffff16141561255c576040517f08c379a000000000000000000000000000000000000000000000000000000000815260040161255390614d5e565b60405180910390fd5b6125678383836130cb565b6125726000826122df565b6001600360008573ffffffffffffffffffffffffffffffffffffffff1673ffffffffffffffffffffffffffffffffffffffff16815260200190815260200160002060008282546125c29190614d7e565b925050819055506001600360008473ffffffffffffffffffffffffffffffffffffffff1673ffffffffffffffffffffffffffffffffffffffff16815260200190815260200160002060008282546126199190614db2565b92505081905550816002600083815260200190815260200160002060006101000a81548173ffffffffffffffffffffffffffffffffffffffff021916908373ffffffffffffffffffffffffffffffffffffffff160217905550808273ffffffffffffffffffffffffffffffffffffffff168473ffffffffffffffffffffffffffffffffffffffff167fddf252ad1be2c89b69c2b068fc378daa952ba7f163c4a11628f55a4df523b3ef60405160405180910390a46126d88383836130d0565b505050565b60008060008084519050600092505b8082101561288757600085838151811061270957612708614aea565b5b602001015160f81c60f81b9050608060f81b817effffffffffffffffffffffffffffffffffffffffffffffffffffffffffffff19161015612758576001836127519190614db2565b9250612873565b60e060f81b817effffffffffffffffffffffffffffffffffffffffffffffffffffffffffffff1916101561279a576002836127939190614db2565b9250612872565b60f060f81b817effffffffffffffffffffffffffffffffffffffffffffffffffffffffffffff191610156127dc576003836127d59190614db2565b9250612871565b60f8801b817effffffffffffffffffffffffffffffffffffffffffffffffffffffffffffff1916101561281d576004836128169190614db2565b9250612870565b60fc60f81b817effffffffffffffffffffffffffffffffffffffffffffffffffffffffffffff1916101561285f576005836128589190614db2565b925061286f565b60068361286c9190614db2565b92505b5b5b5b5b50828061287f90614b48565b9350506126ec565b829350505050919050565b8173ffffffffffffffffffffffffffffffffffffffff168373ffffffffffffffffffffffffffffffffffffffff161415612901576040517f08c379a00000000000000000000000000000000000000000000000000000000081526004016128f890614e54565b60405180910390fd5b80600560008573ffffffffffffffffffffffffffffffffffffffff1673ffffffffffffffffffffffffffffffffffffffff16815260200190815260200160002060008473ffffffffffffffffffffffffffffffffffffffff1673ffffffffffffffffffffffffffffffffffffffff16815260200190815260200160002060006101000a81548160ff0219169083151502179055508173ffffffffffffffffffffffffffffffffffffffff168373ffffffffffffffffffffffffffffffffffffffff167f17307eab39ab6107e8899845ad3d59bd9653f200f220920489ca2b5937696c31836040516129f29190613692565b60405180910390a3505050565b612a0a848484612476565b612a16848484846130d5565b612a55576040517f08c379a0000000000000000000000000000000000000000000000000000000008152600401612a4c90614ee6565b60405180910390fd5b50505050565b606060405180602001604052806000815250905090565b6060612a7d8261226b565b612abc576040517f08c379a0000000000000000000000000000000000000000000000000000000008152600401612ab390614f78565b60405180910390fd5b6000612ac6612a5b565b90506000815111612ae65760405180602001604052806000815250612b11565b80612af084612b27565b604051602001612b019291906145d2565b6040516020818303038152906040525b915050919050565b600081600001549050919050565b60606000821415612b6f576040518060400160405280600181526020017f30000000000000000000000000000000000000000000000000000000000000008152509050612c83565b600082905060005b60008214612ba1578080612b8a90614b48565b915050600a82612b9a9190614fc7565b9150612b77565b60008167ffffffffffffffff811115612bbd57612bbc6138f0565b5b6040519080825280601f01601f191660200182016040528015612bef5781602001600182028036833780820191505090505b5090505b60008514612c7c57600182612c089190614d7e565b9150600a85612c179190614ff8565b6030612c239190614db2565b60f81b818381518110612c3957612c38614aea565b5b60200101907effffffffffffffffffffffffffffffffffffffffffffffffffffffffffffff1916908160001a905350600a85612c759190614fc7565b9450612bf3565b8093505050505b919050565b612d2484848484604051602401612ca29493929190615029565b6040516020818303038152906040527f9fd009f5000000000000000000000000000000000000000000000000000000007bffffffffffffffffffffffffffffffffffffffffffffffffffffffff19166020820180517bffffffffffffffffffffffffffffffffffffffffffffffffffffffff83818316178352505050506130a2565b50505050565b60606000825190506000811415612d535760405180602001604052806000815250915050612ebd565b60006003600283612d649190614db2565b612d6e9190614fc7565b6004612d7a9190615083565b90506000602082612d8b9190614db2565b67ffffffffffffffff811115612da457612da36138f0565b5b6040519080825280601f01601f191660200182016040528015612dd65781602001600182028036833780820191505090505b50905060006040518060600160405280604081526020016153e2604091399050600181016020830160005b86811015612e7a5760038101905062ffffff818a015116603f8160121c168401518060081b905060ff603f83600c1c1686015116810190508060081b905060ff603f8360061c1686015116810190508060081b905060ff603f831686015116810190508060e01b90508084526004840193505050612e01565b506003860660018114612e945760028114612ea457612eaf565b613d3d60f01b6002830352612eaf565b603d60f81b60018303525b508484525050819450505050505b919050565b612f5881604051602401612ed69190613746565b6040516020818303038152906040527f41304fac000000000000000000000000000000000000000000000000000000007bffffffffffffffffffffffffffffffffffffffffffffffffffffffff19166020820180517bffffffffffffffffffffffffffffffffffffffffffffffffffffffff83818316178352505050506130a2565b50565b612f7582826040518060200160405280600081525061325d565b5050565b612f828261226b565b612fc1576040517f08c379a0000000000000000000000000000000000000000000000000000000008152600401612fb89061514f565b60405180910390fd5b80600660008481526020019081526020016000209080519060200190612fe892919061353b565b505050565b6001816000016000828254019250508190555050565b61309d83838360405160240161301b9392919061516f565b6040516020818303038152906040527fa3f5c739000000000000000000000000000000000000000000000000000000007bffffffffffffffffffffffffffffffffffffffffffffffffffffffff19166020820180517bffffffffffffffffffffffffffffffffffffffffffffffffffffffff83818316178352505050506130a2565b505050565b60008151905060006a636f6e736f6c652e6c6f679050602083016000808483855afa5050505050565b505050565b505050565b60006130f68473ffffffffffffffffffffffffffffffffffffffff166132b8565b15613250578373ffffffffffffffffffffffffffffffffffffffff1663150b7a0261311f6122d7565b8786866040518563ffffffff1660e01b81526004016131419493929190615209565b6020604051808303816000875af192505050801561317d57506040513d601f19601f8201168201806040525081019061317a919061526a565b60015b613200573d80600081146131ad576040519150601f19603f3d011682016040523d82523d6000602084013e6131b2565b606091505b506000815114156131f8576040517f08c379a00000000000000000000000000000000000000000000000000000000081526004016131ef90614ee6565b60405180910390fd5b805181602001fd5b63150b7a0260e01b7bffffffffffffffffffffffffffffffffffffffffffffffffffffffff1916817bffffffffffffffffffffffffffffffffffffffffffffffffffffffff191614915050613255565b600190505b949350505050565b61326783836132db565b61327460008484846130d5565b6132b3576040517f08c379a00000000000000000000000000000000000000000000000000000000081526004016132aa90614ee6565b60405180910390fd5b505050565b6000808273ffffffffffffffffffffffffffffffffffffffff163b119050919050565b600073ffffffffffffffffffffffffffffffffffffffff168273ffffffffffffffffffffffffffffffffffffffff16141561334b576040517f08c379a0000000000000000000000000000000000000000000000000000000008152600401613342906152e3565b60405180910390fd5b6133548161226b565b15613394576040517f08c379a000000000000000000000000000000000000000000000000000000000815260040161338b9061534f565b60405180910390fd5b6133a0600083836130cb565b6001600360008473ffffffffffffffffffffffffffffffffffffffff1673ffffffffffffffffffffffffffffffffffffffff16815260200190815260200160002060008282546133f09190614db2565b92505081905550816002600083815260200190815260200160002060006101000a81548173ffffffffffffffffffffffffffffffffffffffff021916908373ffffffffffffffffffffffffffffffffffffffff160217905550808273ffffffffffffffffffffffffffffffffffffffff16600073ffffffffffffffffffffffffffffffffffffffff167fddf252ad1be2c89b69c2b068fc378daa952ba7f163c4a11628f55a4df523b3ef60405160405180910390a46134b1600083836130d0565b5050565b8280546134c190613f52565b90600052602060002090601f0160209004810192826134e3576000855561352a565b82601f106134fc57803560ff191683800117855561352a565b8280016001018555821561352a579182015b8281111561352957823582559160200191906001019061350e565b5b50905061353791906135c1565b5090565b82805461354790613f52565b90600052602060002090601f01602090048101928261356957600085556135b0565b82601f1061358257805160ff19168380011785556135b0565b828001600101855582156135b0579182015b828111156135af578251825591602001919060010190613594565b5b5090506135bd91906135c1565b5090565b5b808211156135da5760008160009055506001016135c2565b5090565b6000604051905090565b600080fd5b600080fd5b60007fffffffff0000000000000000000000000000000000000000000000000000000082169050919050565b613627816135f2565b811461363257600080fd5b50565b6000813590506136448161361e565b92915050565b6000602082840312156136605761365f6135e8565b5b600061366e84828501613635565b91505092915050565b60008115159050919050565b61368c81613677565b82525050565b60006020820190506136a76000830184613683565b92915050565b600081519050919050565b600082825260208201905092915050565b60005b838110156136e75780820151818401526020810190506136cc565b838111156136f6576000848401525b50505050565b6000601f19601f8301169050919050565b6000613718826136ad565b61372281856136b8565b93506137328185602086016136c9565b61373b816136fc565b840191505092915050565b60006020820190508181036000830152613760818461370d565b905092915050565b6000819050919050565b61377b81613768565b811461378657600080fd5b50565b60008135905061379881613772565b92915050565b6000602082840312156137b4576137b36135e8565b5b60006137c284828501613789565b91505092915050565b600073ffffffffffffffffffffffffffffffffffffffff82169050919050565b60006137f6826137cb565b9050919050565b613806816137eb565b82525050565b600060208201905061382160008301846137fd565b92915050565b613830816137eb565b811461383b57600080fd5b50565b60008135905061384d81613827565b92915050565b6000806040838503121561386a576138696135e8565b5b60006138788582860161383e565b925050602061388985828601613789565b9150509250929050565b6000806000606084860312156138ac576138ab6135e8565b5b60006138ba8682870161383e565b93505060206138cb8682870161383e565b92505060406138dc86828701613789565b9150509250925092565b600080fd5b600080fd5b7f4e487b7100000000000000000000000000000000000000000000000000000000600052604160045260246000fd5b613928826136fc565b810181811067ffffffffffffffff82111715613947576139466138f0565b5b80604052505050565b600061395a6135de565b9050613966828261391f565b919050565b600067ffffffffffffffff821115613986576139856138f0565b5b61398f826136fc565b9050602081019050919050565b82818337600083830152505050565b60006139be6139b98461396b565b613950565b9050828152602081018484840111156139da576139d96138eb565b5b6139e584828561399c565b509392505050565b600082601f830112613a0257613a016138e6565b5b8135613a128482602086016139ab565b91505092915050565b600060208284031215613a3157613a306135e8565b5b600082013567ffffffffffffffff811115613a4f57613a4e6135ed565b5b613a5b848285016139ed565b91505092915050565b600080fd5b600080fd5b60008083601f840112613a8457613a836138e6565b5b8235905067ffffffffffffffff811115613aa157613aa0613a64565b5b602083019150836001820283011115613abd57613abc613a69565b5b9250929050565b60008060008060408587031215613ade57613add6135e8565b5b600085013567ffffffffffffffff811115613afc57613afb6135ed565b5b613b0887828801613a6e565b9450945050602085013567ffffffffffffffff811115613b2b57613b2a6135ed565b5b613b3787828801613a6e565b925092505092959194509250565b600060208284031215613b5b57613b5a6135e8565b5b6000613b698482850161383e565b91505092915050565b613b7b81613768565b82525050565b6000602082019050613b966000830184613b72565b92915050565b6000613ba7826137cb565b9050919050565b613bb781613b9c565b82525050565b6000602082019050613bd26000830184613bae565b92915050565b60008060208385031215613bef57613bee6135e8565b5b600083013567ffffffffffffffff811115613c0d57613c0c6135ed565b5b613c1985828601613a6e565b92509250509250929050565b613c2e81613677565b8114613c3957600080fd5b50565b600081359050613c4b81613c25565b92915050565b60008060408385031215613c6857613c676135e8565b5b6000613c768582860161383e565b9250506020613c8785828601613c3c565b9150509250929050565b600067ffffffffffffffff821115613cac57613cab6138f0565b5b613cb5826136fc565b9050602081019050919050565b6000613cd5613cd084613c91565b613950565b905082815260208101848484011115613cf157613cf06138eb565b5b613cfc84828561399c565b509392505050565b600082601f830112613d1957613d186138e6565b5b8135613d29848260208601613cc2565b91505092915050565b60008060008060808587031215613d4c57613d4b6135e8565b5b6000613d5a8782880161383e565b9450506020613d6b8782880161383e565b9350506040613d7c87828801613789565b925050606085013567ffffffffffffffff811115613d9d57613d9c6135ed565b5b613da987828801613d04565b91505092959194509250565b60008060408385031215613dcc57613dcb6135e8565b5b6000613dda8582860161383e565b9250506020613deb8582860161383e565b9150509250929050565b600081519050919050565b600082825260208201905092915050565b6000819050602082019050919050565b600082825260208201905092915050565b6000613e3d826136ad565b613e478185613e21565b9350613e578185602086016136c9565b613e60816136fc565b840191505092915050565b6000613e778383613e32565b905092915050565b6000602082019050919050565b6000613e9782613df5565b613ea18185613e00565b935083602082028501613eb385613e11565b8060005b85811015613eef5784840389528151613ed08582613e6b565b9450613edb83613e7f565b925060208a01995050600181019050613eb7565b50829750879550505050505092915050565b60006020820190508181036000830152613f1b8184613e8c565b905092915050565b7f4e487b7100000000000000000000000000000000000000000000000000000000600052602260045260246000fd5b60006002820490506001821680613f6a57607f821691505b60208210811415613f7e57613f7d613f23565b5b50919050565b7f4552433732313a20617070726f76656420717565727920666f72206e6f6e657860008201527f697374656e7420746f6b656e0000000000000000000000000000000000000000602082015250565b6000613fe0602c836136b8565b9150613feb82613f84565b604082019050919050565b6000602082019050818103600083015261400f81613fd3565b9050919050565b7f4552433732313a20617070726f76616c20746f2063757272656e74206f776e6560008201527f7200000000000000000000000000000000000000000000000000000000000000602082015250565b60006140726021836136b8565b915061407d82614016565b604082019050919050565b600060208201905081810360008301526140a181614065565b9050919050565b7f4552433732313a20617070726f76652063616c6c6572206973206e6f74206f7760008201527f6e6572206e6f7220617070726f76656420666f7220616c6c0000000000000000602082015250565b60006141046038836136b8565b915061410f826140a8565b604082019050919050565b60006020820190508181036000830152614133816140f7565b9050919050565b7f4552433732313a207472616e736665722063616c6c6572206973206e6f74206f60008201527f776e6572206e6f7220617070726f766564000000000000000000000000000000602082015250565b60006141966031836136b8565b91506141a18261413a565b604082019050919050565b600060208201905081810360008301526141c581614189565b9050919050565b600081905092915050565b50565b60006141e76000836141cc565b91506141f2826141d7565b600082019050919050565b6000614208826141da565b9150819050919050565b7f4661696c656420746f207769746864726177206d617469632121000000000000600082015250565b6000614248601a836136b8565b915061425382614212565b602082019050919050565b600060208201905081810360008301526142778161423b565b9050919050565b600081905092915050565b6000614295838561427e565b93506142a283858461399c565b82840190509392505050565b60006142bb828486614289565b91508190509392505050565b7f596f752063616e206f6e6c7920736574206661766f726974652063686172616360008201527f74657220666f7220796f7572206163636f756e74210000000000000000000000602082015250565b60006143236035836136b8565b915061432e826142c7565b604082019050919050565b6000602082019050818103600083015261435281614316565b9050919050565b7f4552433732313a206f776e657220717565727920666f72206e6f6e657869737460008201527f656e7420746f6b656e0000000000000000000000000000000000000000000000602082015250565b60006143b56029836136b8565b91506143c082614359565b604082019050919050565b600060208201905081810360008301526143e4816143a8565b9050919050565b7f4552433732313a2062616c616e636520717565727920666f7220746865207a6560008201527f726f206164647265737300000000000000000000000000000000000000000000602082015250565b6000614447602a836136b8565b9150614452826143eb565b604082019050919050565b600060208201905081810360008301526144768161443a565b9050919050565b7f596f752063616e206f6e6c79207365742063686172616374657220696d61676560008201527f206c696e6b20666f7220796f7572206163636f756e7421000000000000000000602082015250565b60006144d96037836136b8565b91506144e48261447d565b604082019050919050565b60006020820190508181036000830152614508816144cc565b9050919050565b7f45524337323155524953746f726167653a2055524920717565727920666f722060008201527f6e6f6e6578697374656e7420746f6b656e000000000000000000000000000000602082015250565b600061456b6031836136b8565b91506145768261450f565b604082019050919050565b6000602082019050818103600083015261459a8161455e565b9050919050565b60006145ac826136ad565b6145b6818561427e565b93506145c68185602086016136c9565b80840191505092915050565b60006145de82856145a1565b91506145ea82846145a1565b91508190509392505050565b7f4e616d6520616c72656164792074616b656e0000000000000000000000000000600082015250565b600061462c6012836136b8565b9150614637826145f6565b602082019050919050565b6000602082019050818103600083015261465b8161461f565b9050919050565b600061466e83856136b8565b935061467b83858461399c565b614684836136fc565b840190509392505050565b600060208201905081810360008301526146aa818486614662565b90509392505050565b6000815190506146c281613772565b92915050565b6000602082840312156146de576146dd6135e8565b5b60006146ec848285016146b3565b91505092915050565b7f4e6f7420656e6f756768204d6174696320706169640000000000000000000000600082015250565b600061472b6015836136b8565b9150614736826146f5565b602082019050919050565b6000602082019050818103600083015261475a8161471e565b9050919050565b7f2e00000000000000000000000000000000000000000000000000000000000000600082015250565b600061479760018361427e565b91506147a282614761565b600182019050919050565b60008190508160005260206000209050919050565b600081546147cf81613f52565b6147d9818661427e565b945060018216600081146147f4576001811461480557614838565b60ff19831686528186019350614838565b61480e856147ad565b60005b8381101561483057815481890152600182019150602081019050614811565b838801955050505b50505092915050565b600061484e828587614289565b91506148598261478a565b915061486582846147c2565b9150819050949350505050565b600061487e82866147c2565b915061488a82856145a1565b915061489682846147c2565b9150819050949350505050565b7f7b226e616d65223a202200000000000000000000000000000000000000000000600082015250565b60006148d9600a8361427e565b91506148e4826148a3565b600a82019050919050565b7f222c20226465736372697074696f6e223a20224120646f6d61696e206f6e207460008201527f686520486f6b616765206e616d652073657276696365222c2022696d6167652260208201527f3a2022646174613a696d6167652f7376672b786d6c3b6261736536342c000000604082015250565b6000614971605d8361427e565b915061497c826148ef565b605d82019050919050565b7f222c226c656e677468223a220000000000000000000000000000000000000000600082015250565b60006149bd600c8361427e565b91506149c882614987565b600c82019050919050565b7f227d000000000000000000000000000000000000000000000000000000000000600082015250565b6000614a0960028361427e565b9150614a14826149d3565b600282019050919050565b6000614a2a826148cc565b9150614a3682866145a1565b9150614a4182614964565b9150614a4d82856145a1565b9150614a58826149b0565b9150614a6482846145a1565b9150614a6f826149fc565b9150819050949350505050565b7f646174613a6170706c69636174696f6e2f6a736f6e3b6261736536342c000000600082015250565b6000614ab2601d8361427e565b9150614abd82614a7c565b601d82019050919050565b6000614ad382614aa5565b9150614adf82846145a1565b915081905092915050565b7f4e487b7100000000000000000000000000000000000000000000000000000000600052603260045260246000fd5b7f4e487b7100000000000000000000000000000000000000000000000000000000600052601160045260246000fd5b6000614b5382613768565b91507fffffffffffffffffffffffffffffffffffffffffffffffffffffffffffffffff821415614b8657614b85614b19565b5b600182019050919050565b60006040820190508181036000830152614bab818561370d565b90508181036020830152614bbf818461370d565b90509392505050565b7f4552433732313a206f70657261746f7220717565727920666f72206e6f6e657860008201527f697374656e7420746f6b656e0000000000000000000000000000000000000000602082015250565b6000614c24602c836136b8565b9150614c2f82614bc8565b604082019050919050565b60006020820190508181036000830152614c5381614c17565b9050919050565b7f4552433732313a207472616e736665722066726f6d20696e636f72726563742060008201527f6f776e6572000000000000000000000000000000000000000000000000000000602082015250565b6000614cb66025836136b8565b9150614cc182614c5a565b604082019050919050565b60006020820190508181036000830152614ce581614ca9565b9050919050565b7f4552433732313a207472616e7366657220746f20746865207a65726f2061646460008201527f7265737300000000000000000000000000000000000000000000000000000000602082015250565b6000614d486024836136b8565b9150614d5382614cec565b604082019050919050565b60006020820190508181036000830152614d7781614d3b565b9050919050565b6000614d8982613768565b9150614d9483613768565b925082821015614da757614da6614b19565b5b828203905092915050565b6000614dbd82613768565b9150614dc883613768565b9250827fffffffffffffffffffffffffffffffffffffffffffffffffffffffffffffffff03821115614dfd57614dfc614b19565b5b828201905092915050565b7f4552433732313a20617070726f766520746f2063616c6c657200000000000000600082015250565b6000614e3e6019836136b8565b9150614e4982614e08565b602082019050919050565b60006020820190508181036000830152614e6d81614e31565b9050919050565b7f4552433732313a207472616e7366657220746f206e6f6e20455243373231526560008201527f63656976657220696d706c656d656e7465720000000000000000000000000000602082015250565b6000614ed06032836136b8565b9150614edb82614e74565b604082019050919050565b60006020820190508181036000830152614eff81614ec3565b9050919050565b7f4552433732314d657461646174613a2055524920717565727920666f72206e6f60008201527f6e6578697374656e7420746f6b656e0000000000000000000000000000000000602082015250565b6000614f62602f836136b8565b9150614f6d82614f06565b604082019050919050565b60006020820190508181036000830152614f9181614f55565b9050919050565b7f4e487b7100000000000000000000000000000000000000000000000000000000600052601260045260246000fd5b6000614fd282613768565b9150614fdd83613768565b925082614fed57614fec614f98565b5b828204905092915050565b600061500382613768565b915061500e83613768565b92508261501e5761501d614f98565b5b828206905092915050565b60006080820190508181036000830152615043818761370d565b90508181036020830152615057818661370d565b9050818103604083015261506b818561370d565b905061507a6060830184613b72565b95945050505050565b600061508e82613768565b915061509983613768565b9250817fffffffffffffffffffffffffffffffffffffffffffffffffffffffffffffffff04831182151516156150d2576150d1614b19565b5b828202905092915050565b7f45524337323155524953746f726167653a2055524920736574206f66206e6f6e60008201527f6578697374656e7420746f6b656e000000000000000000000000000000000000602082015250565b6000615139602e836136b8565b9150615144826150dd565b604082019050919050565b600060208201905081810360008301526151688161512c565b9050919050565b60006060820190508181036000830152615189818661370d565b90506151986020830185613b72565b81810360408301526151aa818461370d565b9050949350505050565b600081519050919050565b600082825260208201905092915050565b60006151db826151b4565b6151e581856151bf565b93506151f58185602086016136c9565b6151fe816136fc565b840191505092915050565b600060808201905061521e60008301876137fd565b61522b60208301866137fd565b6152386040830185613b72565b818103606083015261524a81846151d0565b905095945050505050565b6000815190506152648161361e565b92915050565b6000602082840312156152805761527f6135e8565b5b600061528e84828501615255565b91505092915050565b7f4552433732313a206d696e7420746f20746865207a65726f2061646472657373600082015250565b60006152cd6020836136b8565b91506152d882615297565b602082019050919050565b600060208201905081810360008301526152fc816152c0565b9050919050565b7f4552433732313a20746f6b656e20616c7265616479206d696e74656400000000600082015250565b6000615339601c836136b8565b915061534482615303565b602082019050919050565b600060208201905081810360008301526153688161532c565b905091905056fe0a2d2d2d2d2d2d2d2d2d2d2d2d2d2d2d2d2d2d2d2d2d2d2d2d2d2d2d2d2d2d2d2d2d2d2d2d2d2d2d2d2d2d2d2d2d2d2d2d2d2d2d2d2d2d2d2d2d2d2d2d2d2d2d2d2d2d2d2d2d2d2d2d2d2d2d2d2d2d2d2d2d2d2d2d2d2d2d2d2d2d2d2d2d2d2d2d2d2d2d2d2d2d2d2d2d2d2d2d2d2d2d2d0a4142434445464748494a4b4c4d4e4f505152535455565758595a6162636465666768696a6b6c6d6e6f707172737475767778797a303132333435363738392b2f5265676973746572696e672025732e2573206f6e20636f6e7472616374207769746820746f6b656e4944202573a26469706673582212203ec4e594e125f2fce81b4bcfed746d88a90330cf9932c6130179e5dc84e8ce5664736f6c634300080a00333c73766720786d6c6e733d22687474703a2f2f7777772e77332e6f72672f323030302f737667222077696474683d2232373022206865696768743d22323730222066696c6c3d226e6f6e65223e3c706174682066696c6c3d2275726c282361292220643d224d302030683237307632373048307a222f3e3c646566733e3c66696c7465722069643d22622220636f6c6f722d696e746572706f6c6174696f6e2d66696c746572733d2273524742222066696c746572556e6974733d227573657253706163654f6e55736522206865696768743d22323730222077696474683d22323730223e3c666544726f70536861646f772064783d2230222064793d22312220737464446576696174696f6e3d22322220666c6f6f642d6f7061636974793d222e323235222077696474683d223230302522206865696768743d2232303025222f3e3c2f66696c7465723e3c2f646566733e3c7061746820643d226d37362e30322035312d322e3739342d392e3030354c38302e30322033376c2d392e3439342d322e3230364c37342e30322032376c2d31302e36393520342e3139344c36352e30322032336c2d382e34393320362e3339344c35332e30322032316c2d352e38393720372e3439344c33392e30322032336c2d2e38393920382e3139344c32392e30322032396c322e37363320372e3539354c32352e30322034316c3520322d33203820362d342e36363776352e333539632d2e3639362e3136322d312e3237312e3331332d312e3532312e3338346c2d312e3430382e3430312d2e30343320312e343633632d2e3030332e3131392d2e30383520322e3932372e30303120342e3636312e32323720342e34363820322e35303420372e35353220352e39343220382e3234394333382e3334312037332e3639342034352e3331312038302034382e353136203830682e303136632e3730312d2e30303520312e3837362d2e30303420322e3637342d2e3030325638306c2e3431392d2e3030312e3432392e303031762d2e303032632e3733322d2e30303120312e3737332d2e30303220322e3435332e303032682e30313663332e32353520302031302e3335322d362e3432382031322e3633382d31332e33343820332e3338392d2e37333120352e3633322d332e37393720352e3835372d382e3232372e3038382d312e3733362e3030352d342e3337372e3030312d342e3438396c2d2e3034372d312e34362d312e3636312d2e343734632d2e3334342d2e312d2e3739342d2e3232392d312e3239312d2e333539762d332e3430386c3620322e3736357a6d2d32392e3431382d322e33393620312e3732322d34632e3030332d2e3030382e30312d2e3031322e3031332d2e3031392e3431392d312e39343820322e3230372d332e343620342e3430312d332e35383420312e362d2e30383920322e36342e30343220332e3137312e3134366c322e3138362d312e30323861312031203020312031202e38353220312e38316c2d322e3520312e313736612e3939362e3939362030203020312d2e3732382e303438732d2e3932362d2e3236362d322e3836382d2e313535632d312e3434392e3038322d322e35393420312e3135322d322e36303820322e3433372d2e3030372e3639392e32363520312e33382e37343720312e3837312e3433372e3434342e3939352e363920312e3537342e3639342e3738372e30303420312e3431372d2e31373320312e37322d2e3530322e3233372d2e3235372e3236322d2e3538362e3234322d2e383136612e3534372e3534372030203020302d2e3336342d2e343737632d2e3233392d2e3039352d2e3631322d2e3039352d2e3934362e313936613120312030203120312d312e3331352d312e353037632e3834382d2e373420322d2e39343920332e3030362d2e35343561322e35333220322e35333220302030203120312e36313120322e313535632e30382e3839352d2e31393120312e3732392d2e37363220322e3334392d2e3438352e3532342d312e34323520312e3134372d332e31363120312e313437682d2e303434632d2e303520302d2e3039392d2e3031342d2e3134392d2e3031362d2e3032382e3030322d2e3035322e3031362d2e30382e3031364834372e3532613120312030203020312d2e3931382d312e3339367a6d32322e343220392e363138632d2e303720312e3338332d2e35343920342e3630312d332e34373720342e363031682d3276312e393739632d2e3031382e3036362d2e3034312e3133322d2e30362e3139384835362e30326c362e33363420322e3731632d2e3233312e34342d2e3438312e38372d2e37343520312e32394835372e30326c332e323420312e393534632d2e3238362e3336342d2e3537362e3731322d2e383720312e303436682d332e33376c312e38313720312e3632354335362e33392037352e3030342035352e3039392037352e38392035342e353332203736632d2e3836362d2e3030352d322e33322d2e3030332d322e3938352d2e3030312d2e3736352d2e3030312d322e3139322d2e3030322d322e3934322e3030382d2e35382d2e31312d312e3831382d2e3933382d332e3231312d322e32344c34372e30322037326c2d332e3333342d2e303037632d2e32362d2e3239372d2e3531372d2e3630352d2e3737312d2e3932344c34362e3032203639682d342e3537336131382e3736392031382e3736392030203020312d2e3532312d2e3838394c34372e3032203635682d372e343134632d2e3032372d2e3039342d2e3036312d2e3138382d2e3038362d2e323833563633682d32632d322e39323720302d332e3430372d332e3231382d332e3437372d342e362d2e3034312d2e3831322d2e3033392d312e3933342d2e3032382d322e3833342e3431392d2e3039362e38362d2e31383820312e3237382d2e3236362e3031342d2e3030322e3032382030202e3034322d2e3030322e3232382d2e3033362e3435362d2e3036312e3638342d2e3039366c3220342e37393720312e3032352d352e32323163312e3431332d2e31373520322e3832332d2e33323420342e3233312d2e343461322e34393620322e3439362030203020302d312e323720322e31363720322e35303820322e35303820302030203020352e303134203063302d312e30342d2e3633362d312e3933322d312e35342d322e3331316139392e3933322039392e3933322030203020312031322e3132362d2e30313620322e35303420322e353034203020302030202e39313320342e38333420322e3520322e3520302030203020312e3137342d342e37303663312e3430352e31313420322e3830332e32363120342e3139362e3433364c36352e30322036306c312e3834362d342e383234632e3237342e3034332e3535312e3037342e3832352e31322e31312e3031392e32322e3032372e33332e3032372e3034382030202e3039352d2e3030392e3134332d2e3031332e3239382e3036352e362e3133382e3838382e3231342e30312e3834372e30313120312e392d2e303320322e3639387a222066696c6c3d2223666666222f3e3c646566733e3c6c696e6561724772616469656e742069643d2261222078313d2230222079313d2230222078323d22323730222079323d2232373022206772616469656e74556e6974733d227573657253706163654f6e557365223e3c73746f702073746f702d636f6c6f723d2223464639363731222f3e3c73746f70206f66667365743d2231222073746f702d636f6c6f723d2223453537423839222073746f702d6f7061636974793d222e3939222f3e3c2f6c696e6561724772616469656e743e3c2f646566733e3c7465787420783d2233322e352220793d223233312220666f6e742d73697a653d223235222066696c6c3d2223666666222066696c7465723d2275726c282362292220666f6e742d66616d696c793d22506f7070696e73202c73616e732d73657269662220666f6e742d7765696768743d22626f6c64223e",
  "linkReferences": {},
  "deployedLinkReferences": {}
}